{
  "transactions": [
    {
      "hash": "0xedd255019bbaeab93c3e4af5c05db313cd4947c5807ffa5af8591b4c5680821c",
      "transactionType": "CALL",
      "contractName": null,
      "contractAddress": "0xe7f1725e7734ce288f8367e1bb143e90bb3f0512",
      "function": "mint(address,uint256)",
      "arguments": [
        "0x3C44CdDdB6a900fa2b585dd299e03d12FA4293BC",
        "10000000"
      ],
      "transaction": {
        "from": "0x70997970c51812dc3a010c7d01b50e0d17dc79c8",
        "to": "0xe7f1725e7734ce288f8367e1bb143e90bb3f0512",
        "gas": "0x10665",
        "value": "0x0",
        "input": "0x40c10f190000000000000000000000003c44cdddb6a900fa2b585dd299e03d12fa4293bc0000000000000000000000000000000000000000000000000000000000989680",
        "nonce": "0x2",
        "chainId": "0x7a69"
      },
      "additionalContracts": [],
      "isFixedGasLimit": false
    },
    {
      "hash": "0xd0840bc5d77f6231b3e00978e00079d9a3c4f0b1fb4dce7ef95a4ae825349d61",
      "transactionType": "CALL",
      "contractName": null,
      "contractAddress": "0xdc64a140aa3e981100a9beca4e685f962f0cf6c9",
      "function": "approve(address,uint256)",
      "arguments": [
        "0xa513E6E4b8f2a923D98304ec87F64353C4D5C853",
        "1"
      ],
      "transaction": {
        "from": "0x70997970c51812dc3a010c7d01b50e0d17dc79c8",
        "to": "0xdc64a140aa3e981100a9beca4e685f962f0cf6c9",
        "gas": "0x104bd",
        "value": "0x0",
        "input": "0x095ea7b3000000000000000000000000a513e6e4b8f2a923d98304ec87f64353c4d5c8530000000000000000000000000000000000000000000000000000000000000001",
        "nonce": "0x3",
        "chainId": "0x7a69"
      },
      "additionalContracts": [],
      "isFixedGasLimit": false
    },
    {
      "hash": "0x805148e5b4351e617cc0d6a0bd43f25fa71d5cd97fc54e16b8a99b0a726aad2e",
      "transactionType": "CALL",
      "contractName": null,
      "contractAddress": "0xe7f1725e7734ce288f8367e1bb143e90bb3f0512",
      "function": "approve(address,uint256)",
      "arguments": [
        "0xa513E6E4b8f2a923D98304ec87F64353C4D5C853",
        "1000000"
      ],
      "transaction": {
        "from": "0x3c44cdddb6a900fa2b585dd299e03d12fa4293bc",
        "to": "0xe7f1725e7734ce288f8367e1bb143e90bb3f0512",
        "gas": "0x10635",
        "value": "0x0",
        "input": "0x095ea7b3000000000000000000000000a513e6e4b8f2a923d98304ec87f64353c4d5c85300000000000000000000000000000000000000000000000000000000000f4240",
        "nonce": "0x0",
        "chainId": "0x7a69"
      },
      "additionalContracts": [],
      "isFixedGasLimit": false
    },
    {
      "hash": "0x2be36da7ef8871d988084cf28eacc10591a87628e51d3a0c68898fb791dce80e",
      "transactionType": "CALL",
      "contractName": null,
      "contractAddress": "0xa513e6e4b8f2a923d98304ec87f64353c4d5c853",
      "function": "fillOrderArgs((uint256,uint256,uint256,uint256,uint256,uint256,uint256,uint256),bytes32,bytes32,uint256,uint256,bytes)",
      "arguments": [
        "(1758988347, 642829559307850963015472508762062935916233390536, 344073830386746567427978432078835137280280269756, 1258222091183498019947225577994668400935317599945, 1324161310598743833836268493538283093091898295570, 1, 1000000, 57896044618658097711785492504343953926634992332820282019728792003956564819968)",
        "0x238e85b82fc4708613f04839616d3278d77108aae37dc679c28dedd02d8d249e",
        "0xbc7bb168e731e73172ab02d644082f26ced386a753301c61557aaabd8bd11e6e",
        "1000000",
        "61514547407324228818772085785865451047049679353621549645961841504203850121216",
        "0x3c44cdddb6a900fa2b585dd299e03d12fa4293bc"
      ],
      "transaction": {
        "from": "0x3c44cdddb6a900fa2b585dd299e03d12fa4293bc",
        "to": "0xa513e6e4b8f2a923d98304ec87f64353c4d5c853",
        "gas": "0x229a9",
        "value": "0x0",
        "input": "0xf497df750000000000000000000000000000000000000000000000000000000068d8083b00000000000000000000000070997970c51812dc3a010c7d01b50e0d17dc79c80000000000000000000000003c44cdddb6a900fa2b585dd299e03d12fa4293bc000000000000000000000000dc64a140aa3e981100a9beca4e685f962f0cf6c9000000000000000000000000e7f1725e7734ce288f8367e1bb143e90bb3f0512000000000000000000000000000000000000000000000000000000000000000100000000000000000000000000000000000000000000000000000000000f42408000000000000000000000000000000000000000000000000000000000000000238e85b82fc4708613f04839616d3278d77108aae37dc679c28dedd02d8d249ebc7bb168e731e73172ab02d644082f26ced386a753301c61557aaabd8bd11e6e00000000000000000000000000000000000000000000000000000000000f4240880000000000000000000000000000000000000000000000000000000000000000000000000000000000000000000000000000000000000000000000000001a000000000000000000000000000000000000000000000000000000000000000143c44cdddb6a900fa2b585dd299e03d12fa4293bc000000000000000000000000",
        "nonce": "0x1",
        "chainId": "0x7a69"
      },
      "additionalContracts": [],
      "isFixedGasLimit": false
    }
  ],
  "receipts": [
    {
      "status": "0x1",
      "cumulativeGasUsed": "0xb36b",
      "logs": [
        {
          "address": "0xe7f1725e7734ce288f8367e1bb143e90bb3f0512",
          "topics": [
            "0xddf252ad1be2c89b69c2b068fc378daa952ba7f163c4a11628f55a4df523b3ef",
            "0x0000000000000000000000000000000000000000000000000000000000000000",
            "0x0000000000000000000000003c44cdddb6a900fa2b585dd299e03d12fa4293bc"
          ],
          "data": "0x0000000000000000000000000000000000000000000000000000000000989680",
          "blockHash": "0x50f1822c3aaf2f6054c3cdf0bb13d1b51ea50e298f316ebec884377eea3d1f22",
          "blockNumber": "0x12",
          "blockTimestamp": "0x68d80851",
          "transactionHash": "0xedd255019bbaeab93c3e4af5c05db313cd4947c5807ffa5af8591b4c5680821c",
          "transactionIndex": "0x0",
          "logIndex": "0x0",
          "removed": false
        }
      ],
      "logsBloom": "0x00000000000000000000000000000000000000000000000000000000000000000000000000000000000000000000000010000000000000000000000000100000000000000000000000000008000000000000000000000000000000000000000000000000020000000000000000000800000800000000000000000010000000000000000000000000000000000000000000000000000000000000000000000000000000000000200000000000000000000000000000000000000000000000000000000002000000000000000000001000000000000000000000000000000020000000000000000000000000000000000000000000000000800000000000000000",
      "type": "0x2",
      "transactionHash": "0xedd255019bbaeab93c3e4af5c05db313cd4947c5807ffa5af8591b4c5680821c",
      "transactionIndex": "0x0",
      "blockHash": "0x50f1822c3aaf2f6054c3cdf0bb13d1b51ea50e298f316ebec884377eea3d1f22",
      "blockNumber": "0x12",
      "gasUsed": "0xb36b",
      "effectiveGasPrice": "0x6a8a678",
      "blobGasPrice": "0x1",
      "from": "0x70997970c51812dc3a010c7d01b50e0d17dc79c8",
      "to": "0xe7f1725e7734ce288f8367e1bb143e90bb3f0512",
      "contractAddress": null
    },
    {
      "status": "0x1",
      "cumulativeGasUsed": "0xbcc6",
      "logs": [
        {
          "address": "0xdc64a140aa3e981100a9beca4e685f962f0cf6c9",
          "topics": [
            "0x8c5be1e5ebec7d5bd14f71427d1e84f3dd0314c0f7b2291e5b200ac8c7c3b925",
            "0x00000000000000000000000070997970c51812dc3a010c7d01b50e0d17dc79c8",
            "0x000000000000000000000000a513e6e4b8f2a923d98304ec87f64353c4d5c853",
            "0x0000000000000000000000000000000000000000000000000000000000000001"
          ],
          "data": "0x",
          "blockHash": "0x41f19a83ae9372b85c8f53a63f148651828db8c5ec55a7ecbb146c7364c5bb32",
          "blockNumber": "0x13",
          "blockTimestamp": "0x68d80851",
          "transactionHash": "0xd0840bc5d77f6231b3e00978e00079d9a3c4f0b1fb4dce7ef95a4ae825349d61",
          "transactionIndex": "0x0",
          "logIndex": "0x0",
          "removed": false
        }
      ],
      "logsBloom": "0x00000000000000000002000000400000000000000000000000000000000000000000000000000000000000002000000000000000000000000000000000240000000000000000000000000000000000000000000000040000000000000000000000000800000000000000000000000000000000000000000000000000000000000000000000000000000000000000000000000000000000000000000000000000020000000000000000000000000000000000000000000000000000000000000000000000000000000000000000000000000000000020000000000000000040000010000000000000000000000800000001000001000000000100000000000000",
      "type": "0x2",
      "transactionHash": "0xd0840bc5d77f6231b3e00978e00079d9a3c4f0b1fb4dce7ef95a4ae825349d61",
      "transactionIndex": "0x0",
      "blockHash": "0x41f19a83ae9372b85c8f53a63f148651828db8c5ec55a7ecbb146c7364c5bb32",
      "blockNumber": "0x13",
      "gasUsed": "0xbcc6",
      "effectiveGasPrice": "0x5d438b2",
      "blobGasPrice": "0x1",
      "from": "0x70997970c51812dc3a010c7d01b50e0d17dc79c8",
      "to": "0xdc64a140aa3e981100a9beca4e685f962f0cf6c9",
      "contractAddress": null
    },
    {
      "status": "0x1",
      "cumulativeGasUsed": "0xb34a",
      "logs": [
        {
          "address": "0xe7f1725e7734ce288f8367e1bb143e90bb3f0512",
          "topics": [
            "0x8c5be1e5ebec7d5bd14f71427d1e84f3dd0314c0f7b2291e5b200ac8c7c3b925",
            "0x0000000000000000000000003c44cdddb6a900fa2b585dd299e03d12fa4293bc",
            "0x000000000000000000000000a513e6e4b8f2a923d98304ec87f64353c4d5c853"
          ],
          "data": "0x00000000000000000000000000000000000000000000000000000000000f4240",
          "blockHash": "0x952e35b2ffc725333f3e652c688d88f7998f1b735e42122b1ec68d22d528007b",
          "blockNumber": "0x14",
          "blockTimestamp": "0x68d80851",
          "transactionHash": "0x805148e5b4351e617cc0d6a0bd43f25fa71d5cd97fc54e16b8a99b0a726aad2e",
          "transactionIndex": "0x0",
          "logIndex": "0x0",
          "removed": false
        }
      ],
      "logsBloom": "0x00000000000000000000000000400000000000000000000000000000000000000000000000000000000000002000000010000000000000000000000000300000000000000000000000000000000000000000000000000000000000000000000000000000000000000000000000000000000800000000000000000000000000000000000000000000000000000000000000000000000000000000000000000000020000000000200000000000000000000000000000000000000000000000000000000000000000000000000000001000000000000000000000000000000000000010000000000000000000000800000000000000000000800000000000000000",
      "type": "0x2",
      "transactionHash": "0x805148e5b4351e617cc0d6a0bd43f25fa71d5cd97fc54e16b8a99b0a726aad2e",
      "transactionIndex": "0x0",
      "blockHash": "0x952e35b2ffc725333f3e652c688d88f7998f1b735e42122b1ec68d22d528007b",
      "blockNumber": "0x14",
      "gasUsed": "0xb34a",
      "effectiveGasPrice": "0x51a4b74",
      "blobGasPrice": "0x1",
      "from": "0x3c44cdddb6a900fa2b585dd299e03d12fa4293bc",
      "to": "0xe7f1725e7734ce288f8367e1bb143e90bb3f0512",
      "contractAddress": null
    },
    {
      "status": "0x1",
      "cumulativeGasUsed": "0x190d8",
      "logs": [
        {
          "address": "0xdc64a140aa3e981100a9beca4e685f962f0cf6c9",
          "topics": [
            "0xddf252ad1be2c89b69c2b068fc378daa952ba7f163c4a11628f55a4df523b3ef",
            "0x00000000000000000000000070997970c51812dc3a010c7d01b50e0d17dc79c8",
            "0x0000000000000000000000003c44cdddb6a900fa2b585dd299e03d12fa4293bc",
            "0x0000000000000000000000000000000000000000000000000000000000000001"
          ],
          "data": "0x",
          "blockHash": "0x27caf3fed5f326759c65e55dcbe175597b4b6a51a66c30e6d98f47831f9d2bcc",
          "blockNumber": "0x15",
          "blockTimestamp": "0x68d80851",
          "transactionHash": "0x2be36da7ef8871d988084cf28eacc10591a87628e51d3a0c68898fb791dce80e",
          "transactionIndex": "0x0",
          "logIndex": "0x0",
          "removed": false
        },
        {
          "address": "0xe7f1725e7734ce288f8367e1bb143e90bb3f0512",
          "topics": [
            "0xddf252ad1be2c89b69c2b068fc378daa952ba7f163c4a11628f55a4df523b3ef",
            "0x0000000000000000000000003c44cdddb6a900fa2b585dd299e03d12fa4293bc",
            "0x0000000000000000000000003c44cdddb6a900fa2b585dd299e03d12fa4293bc"
          ],
          "data": "0x00000000000000000000000000000000000000000000000000000000000f4240",
          "blockHash": "0x27caf3fed5f326759c65e55dcbe175597b4b6a51a66c30e6d98f47831f9d2bcc",
          "blockNumber": "0x15",
          "blockTimestamp": "0x68d80851",
          "transactionHash": "0x2be36da7ef8871d988084cf28eacc10591a87628e51d3a0c68898fb791dce80e",
          "transactionIndex": "0x0",
          "logIndex": "0x1",
          "removed": false
        },
        {
          "address": "0xa513e6e4b8f2a923d98304ec87f64353c4d5c853",
          "topics": [
            "0xfec331350fce78ba658e082a71da20ac9f8d798a99b3c79681c8440cbfe77e07"
          ],
          "data": "0xd263ca7e9284bf442a166c91f66e0040911420d3301e744fa804553822ffc8960000000000000000000000000000000000000000000000000000000000000000",
          "blockHash": "0x27caf3fed5f326759c65e55dcbe175597b4b6a51a66c30e6d98f47831f9d2bcc",
          "blockNumber": "0x15",
          "blockTimestamp": "0x68d80851",
          "transactionHash": "0x2be36da7ef8871d988084cf28eacc10591a87628e51d3a0c68898fb791dce80e",
          "transactionIndex": "0x0",
          "logIndex": "0x2",
          "removed": false
        }
      ],
      "logsBloom": "0x00000000000000000002000000000000000000000000000000000000000080010000000000000000000000000000000010000000000000000000000000140000000000000000000000000008000000000000000010040000010000000000000000000800000000000000000000000000000800000000000000000010000000000000000000000000000000000000000000000000000000000000000000800000000000000000200000000000000000000000000000000000000000000000002000000002000000000000000000001000000000000020000000000000000040000000000000000000000000000000000001000001000000800100000000000000",
      "type": "0x2",
      "transactionHash": "0x2be36da7ef8871d988084cf28eacc10591a87628e51d3a0c68898fb791dce80e",
      "transactionIndex": "0x0",
      "blockHash": "0x27caf3fed5f326759c65e55dcbe175597b4b6a51a66c30e6d98f47831f9d2bcc",
      "blockNumber": "0x15",
      "gasUsed": "0x190d8",
      "effectiveGasPrice": "0x47781ee",
      "blobGasPrice": "0x1",
      "from": "0x3c44cdddb6a900fa2b585dd299e03d12fa4293bc",
      "to": "0xa513e6e4b8f2a923d98304ec87f64353c4d5c853",
      "contractAddress": null
    }
  ],
  "libraries": [],
  "pending": [],
  "returns": {},
  "timestamp": 1758988369160,
  "chain": 31337,
  "commit": "563207f"
}